:1000000065C000000CC200000AC2000008C2000067
:1000100006C200000C94E81E02C2000000C20000EC
:10002000FEC10000FCC10000FAC10000F8C10000E0
:10003000F6C10000F4C10000F2C10000F0C10000F0
:10004000EEC10000ECC10000EAC10000E8C1000000
:10005000E6C100000C940658E2C10000E0C10000B7
:10006000DEC10000DCC10000DAC10000D8C1000020
:10007000D6C10000D4C10000D2C10000D0C1000030
:10008000CEC10000CCC10000CAC10000C8C1000040
:10009000C6C10000C4C10000C2C10000C0C1000050
:1000A000BEC10000BCC10000BAC10000B8C1000060
:1000B000B6C10000B4C10000B2C10000B0C1000070
:1000C000AEC10000ACC10000AAC1000011241FBED7
:1000D000CFEFD1E2DEBFCDBF0E9400F087C10000AC
:1000E000FF0C0B0B0A0A0A0909080808070707078B
:1000F00006060605050505050404040404030303B8
:1001000003030303030202020202020202020201CB
:1001100001010101010101010101010101010101CF
:1001200000000000000000000000000000000000CF
:1001300000000000000000000000000000000000BF
:1001400000000000000000000000000000000000AF
:10015000000000000000000000000000000000009F
:10016000000000000000000000000000000000008F
:10017000000000000000000000000000000000007F
:10018000000000000000000000000000000000006F
:10019000000000000000000000000000000000005F
:1001A000000000000000000000000000000000004F
:1001B000000000000000000000000000000000003F
:1001C000000000000000000000000000000000002F
:1001D000000000000000000000000000000000001F
:1001E000FF4ED25BE87A10AB49EB913BE8984B02AB
:1001F000BB7736F7BB814914E1AF805327FDD5AEFD
:100200008965432202E4C7AB90765D452E1803EF63
:10021000DBC8B6A595857566584B3E3125190E0489
:10022000F9F0E6DDD4CCC4BCB5AEA7A09A948E8814
:10023000837E79746F6B67635F5B5754514D4A4798
:1002400044423F3D3A38363432302E2C2A28272576
:10025000242221201E1D1C1B1A19181716151413F1
:1002600013121110100F0E0E0D0D0C0C0B0B0A0AB1
:100270000A0909080808070707060606060505050E
:100280000505040404040403030303030303020237
:100290000202020202020202020101010101010145
:1002A0000101010101010101010100000000000044
:1002B000000000000000000000000000000000003E
:1002C000000000000000000000000000000000002E
:1002D000000000000000000000000000000000001E
:1002E000FF996211745B9A0570B5AB2E1B4DA50387
:1002F000485714632B53C2631EDF901F798B4595BB
:100300006BB96F7FDB77453A4B6B90B0C1B9903DCD
:10031000B6F5F1A2030BB4F8D1392A9F92FFE1336D
:10032000F1169F87CB67589B2B062A933E2952B51F
:1003300052242B64CD652918306FD45D0AD8C6D4F9
:10034000FF46A927BE6D3310030A255394E649BD25
:1003500040D27221DDA57A5A463D3E4A5F7DA4D443
:100360000B4B93E13793F65FCE42BD3CC14AD86A4E
:10037000019C3BDE852FDC8D40F7B16D2CEEB27910
:10038000410CD9A8794C21F7CFA984603E1DFEE02D
:10039000C3A78C725A422B1500ECD8C6B4A3928224
:1003A000736456493C2F23180D02F8EEE5DCD3CBDD
:1003B000C3BBB4ADA69F99938D87827D78736F6A16
:1003C00066625E5A5753504D4A4744413F3C3A3863
:1003D0003533312F2D2C2A2827252422211F1E1D9D
:1003E00011241FBECFEFD1E2DEBFCDBF21E2A2E5D7
:1003F000BFE001C01D92AD32B207E1F71FE0A0E0FF
:10040000B2E0E0E6F6EE00E00BBF02C007900D920E
:10041000A235B107D9F70E94AA5D0C94A972F0CD5C
:100420000F93CF93DF9300D000D00F92CDB7DEB7FC
:100430008C839D8369834A832B8380917E188430CB
:1004400041F18C819D818230910509F44AC083304D
:10045000910509F45FC0019709F040C08981E091DE
:100460006F18F0917018883F08F075C09981963F19
:1004700009F46DC0E0917518F09176183097B9F0D5
:100480000B812A8149816C817D8189E598E10995FB
:100490000EC0E0917318F0917418309759F3022F41
:1004A000242F462F6C817D8189E598E10995E091A3
:1004B0007718F0917818309741F00B812A814981A3
:1004C0006C817D8189E598E109950F900F900F90DF
:1004D0000F900F90DF91CF910F9108951C821D8294
:1004E000C9CF8981807F803D09F462C0803F09F4D3
:1004F00067C0803C09F0BECFE0916718F0916818A2
:10050000309709F4B7CF4A8169816F7089E598E126
:100510000995CDCF8981807F803B09F46DC018F5A6
:10052000803909F461C0803AA9F1803809F0A2CF7E
:10053000E0915F18F0916018309709F49BCF2B8100
:100540004A8169816F7089E598E10995B0CFE091A2
:100550007118F0917218309709F48CCF698189E590
:1005600098E10995A4CF803EE1F0803F09F082CF69
:100570009981923F09F07ECFE0916518F09166185D
:10058000309709F477CF2B814A8162EF89E598E1B2
:1005900009958DCFE0916118F0916218309779F646
:1005A00069CFE0916318F0916418309741F662CFFB
:1005B000E0916918F0916A18309709F0A4CF5ACFEA
:1005C0008981833F09F19981913F09F053CFE091EF
:1005D0006D18F0916E18309709F44CCF4A816981FB
:1005E00089E598E1099563CFE0915D18F0915E1877
:1005F000309709F0A4CF3ECFE0915B18F0915C18E2
:10060000309709F09CCF36CFE0916B18F0916C18C1
:10061000309721F72FCF582F40917E1887FF23C0A6
:10062000443039F080937B1881E080937F181092DA
:100630008018852F807F803D09F469C008F04DC087
:10064000803B09F468C008F05FC0507E503809F460
:1006500062C0803A09F45FC010927E1810927F1831
:100660001092801808954115B9F1E0917F18F0912A
:1006700080189F01ABEABAEA0E9478729C01369515
:1006800027958E7F820F931F9F01281B390BD9015D
:10069000A75AB74E92965C93CF01019680937F182C
:1006A0009093801821303105A1F022303105A1F45A
:1006B00020917D1840917C1860917B18B1DE80916B
:1006C0007E18843049F081E080937F181092801862
:1006D000089520E0423071F30895803EE1F0803FBC
:1006E00009F0BACF533F99F0D0F4513F81F0523F17
:1006F00091F094E090937E1880937B1881E0809332
:100700007F18109280180895803C09F0A5CF82E0F0
:1007100080937E18089583E080937E1808955D3F4E
:1007200078F4583F10F4563F69F481E080937E18C6
:1007300020E040E0652F90E073DE10927E1808956F
:10074000A1F78ACF573F09F087CF40917F1850918A
:1007500080189A01ABEABAEA0E9478729C01369539
:1007600027958E7F820F931FFA01E81BF90BE75A3A
:10077000F74E87EF82A3CA01019680937F1890936A
:10078000801820917D1840917C1860917B1848DE7C
:1007900010927E180895CF93DF930F92CDB7DEB7F6
:1007A000FC0169834FB7F894218130E0C9010196BB
:1007B000628170E00E941B6E508158171906A1F0EB
:1007C000A381B481A20FB31F89818C93818190E0B2
:1007D0000196628170E00E941B6E81834FBF81E0B1
:1007E0000F90DF91CF9108954FBF80E00F90DF9180
:1007F000CF910895FC012FB7F894918180819817CB
:1008000010F43281930F981B892F2FBF089594B154
:10081000976094B923981CBC9CE59CBD9CB5982B13
:100820009CBD089587FD11C0E82FF0E0EF5FF84F01
:1008300080818093761D67FD0AC0E62FF0E0EF5FB0
:10084000F84F80818093771D08958FEFF2CF8FEF5F
:10085000F9CF24E630E040E050E00E944C722AE0FC
:1008600030E040E050E00E944C72605D80E3820F17
:10087000D9CF21E030E0F90102C0EE0FFF1F8A95C9
:10088000E2F7CF01E091721DF091731D411599F0CF
:10089000611539F1E82BF92BE093721DF093731D6C
:1008A0002091741D3091751D822B932B8093741DA4
:1008B0009093751D08959C01209530954091741D6D
:1008C0005091751D422353234093741D5093751D01
:1008D000611551F08E2B9F2B8093721D9093731D89
:1008E00008959C01209530952E233F232093721D5F
:1008F0003093731D08959C01432F4695469584B30C
:10090000836084BB9EB19F7D90649EB95FEF50BBB6
:100910009EB19F7B90689EB941BB40E448B981E09D
:1009200082B9759AA098369527953695279584B300
:10093000836084BB9EB19F7D90649EB950BB9EB185
:100940009F7B90689EB921BB48B912B8759AA09850
:1009500008959C01AA27269FB12D379FC001729F41
:10096000B00D811D9A1F369FB00D811D9A1F112455
:100970000895809159198F5F809359190895CF92E6
:10098000DF92EF92FF920F931F93CF93DF9300D0EC
:1009900000D000D00F92CDB7DEB7582F69832BEA75
:1009A000829F212D112426952695269561E0620FC0
:1009B000842F90E030E0E62FF0E0503608F068C079
:1009C000D901AA0FBB1FAA0FBB1FAA0FBB1FA20FE3
:1009D000B31FAA0FBB1FA80FB91FAA0FBB1FAE5E84
:1009E000B84E2D913D912E833F83683009F490C01D
:1009F0009F01220F331F220F331F220F331FE20FDD
:100A0000F31FEE0FFF1FE80FF91FEE0FFF1FEE5E43
:100A1000F84E008111818BEA589F812D1124869513
:100A200086958695982F990F890F880F880FE52F47
:100A3000E81BF0E0EE0FFF1FE756FC4EE080F18070
:100A4000298180E090E0722F60E0AC012CE030E082
:100A50000E9487722E0D3F1D411D511DD8016E81D0
:100A60007F81A61BB70B0E9468722E813F81820F87
:100A7000931F27960FB6F894DEBF0FBECDBFDF9150
:100A8000CF911F910F91FF90EF90DF90CF9008953D
:100A9000DC01AA0FBB1FA25FB74E0D911D91880FFD
:100AA000991FDC01A651B84E8D919D911297B80106
:100AB000681B790BCB016A839B83AC83BD83680180
:100AC000E12CF12C27503109DB010E947872DC0106
:100AD000CB01800F911FA11DB11D1097B1F48E8322
:100AE0009F839F0127503109AA81BB810E947872A0
:100AF0008B019C010C0D1D1D2E1D3F1D022E032A76
:100B000009F489CF0FEF1FEF86CF8FEF9FEFE7CF6D
:100B1000DC01AA0FBB1FA25FB74ECD90DD90880FFE
:100B2000991FDC01A651B84E8D919D9112979601A7
:100B3000281B390BC9012A839B83AC83BD83E12C1D
:100B4000F12CCFCF109251121092521210925312D8
:100B5000109254128FEF8093F6128093F712E5EB08
:100B6000F2E180E2DF011D928A95E9F70895833072
:100B700079F0893169F08F3159F091EF980F923007
:100B800038F0811103C081E0613009F080E0089500
:100B900081E0089586E0EAEAF0E1A3E9B3E101909B
:100BA0000D928A95E1F7089523E08202C001112495
:100BB000880F991F880F991FFC01E659FF4E10827C
:100BC000FC01E459FF4E1082FC01E759FF4E2FEF64
:100BD000208388599F4EFC0120830895CF93DC0128
:100BE0008091DB1F9091DC1F8B5D9D418130924095
:100BF000A0F54BED5EE16A0F7B2F711DC6E032E080
:100C000005C011965F5FA617B70739F1B111F9CF8B
:100C1000CA0191502898CEBD0DB407FEFDCF289A89
:100C200028983EBD0DB407FEFDCFAEBD0DB407FE46
:100C3000FDCF1EBC0DB407FEFDCFFC012081019647
:100C40002EBD0DB407FEFDCF84179507B1F7289A86
:100C500011965F5FA617B707C9F6CF9108950F9356
:100C6000282F2F77409138184F70406CE091591819
:100C7000F0915A1800E062E070E089E598E109958A
:100C80000F9108950F93072F0695282F2F774091E6
:100C900038184F704069E0915918F0915A1863E084
:100CA00070E089E598E109950F9108958F929F92E0
:100CB000AF92BF92CF92DF92EF92FF920F931F936A
:100CC000CF93DF9300D000D000D0CDB7DEB78C013A
:100CD000FC01C080D180E480F5808680978054013B
:100CE000912C812CA0E0B0E8AD01940128193909BC
:100CF0004A095B0919821A824B835C8342815381C2
:100D00004D835E83CA018E0D9F1D9601281B390BF2
:100D1000A40169817A818B819C810E948772F8018C
:100D200020873187428753872D813E8120953095DA
:100D3000CE0CDF1C2C193D092D833E83A401698153
:100D40007A818B819C810E948772F8012487358784
:100D500046875787E114F10459F09701A401BA01BD
:100D6000C5010E948772F801208B318B428B538B17
:100D70000F900F900F900F900F900F90DF91CF91E9
:100D80001F910F91FF90EF90DF90CF90BF90AF90A9
:100D90009F908F9008950F931F93E091FB16F09111
:100DA000FC166091FD167091FE168091CD16909103
:100DB000CE164091FF165091001720911313211168
:100DC0001AC09B01209530952817390708F435C0C3
:100DD0009C01260F371F8F01AA27409FB12D519FDD
:100DE000C001149FB00D811D9A1F509FB00D811D31
:100DF0009A1F112417C08F01AA27609FB12D719FE0
:100E00009001169FB00D211D3A1F709FB00D211D3E
:100E10003A1F1124BA01609570956817790780F020
:100E2000840F951F2093B9153093BA158093D3156D
:100E30009093D4151F910F9108952FEF3FEFCBCFD3
:100E40008FEF9FEFEFCF809122209091FC129111B4
:100E5000E2C08E7F809322209FB7F89420912220B9
:100E600084B3836084BB8EB18F7D80648EB98FEF35
:100E700080BB8EB18F7780648EB921BB18B88BE0B0
:100E800082B9759AA0989FBF809122209091FF12FD
:100E90009111CDC0877F809322209FB7F894209135
:100EA000222084B3836084BB8EB18F7D80648EB931
:100EB0008FEF80BB8EB18F7780648EB921BB18B85D
:100EC0008BE082B9759AA0989FBF80912220909163
:100ED000FD129111AAC08D7F809322209FB7F894B4
:100EE0002091222084B3836084BB8EB18F7D806487
:100EF0008EB98FEF80BB8EB18F7780648EB921BBA6
:100F000018B88BE082B9759AA0989FBF8091222073
:100F100090910013911187C08F7E809322209FB7FC
:100F2000F8942091222084B3836084BB8EB18F7D9E
:100F300080648EB98FEF80BB8EB18F7780648EB95D
:100F400021BB18B88BE082B9759AA0989FBF809199
:100F5000222090910213911164C08B7F80932220F4
:100F60009FB7F8942091222084B3836084BB8EB114
:100F70008F7D80648EB98FEF80BB8EB18F77806458
:100F80008EB921BB18B88BE082B9759AA0989FBF23
:100F90008091222090910313911141C08F7D809305
:100FA00022209FB7F8942091222084B3836084BBD1
:100FB0008EB18F7D80648EB98FEF80BB8EB18F77BD
:100FC00080648EB921BB18B88BE082B9759AA0985D
:100FD0009FBF809122209091041391111EC08F7B9E
:100FE000809322209FB7F8942091222084B38360BD
:100FF00084BB8EB18F7D80648EB98FEF80BB8EB144
:101000008F7780648EB921BB18B88BE082B9759A4E
:10101000A0989FBF089581601DCF8064E1CF80625A
:10102000BECF84609BCF806178CF826055CF8860CF
:1010300032CF77FF2DC097FD17C060957095AC013A
:10104000AA27469FB12D579F9001749FB00D211D77
:101050003A1F569FB00D211D3A1F1124C901880F58
:10106000991F8095909508959C0120953095AA2709
:10107000269FB12D379FC001729FB00D811D9A1F11
:10108000369FB00D811D9A1F1124880F991F089556
:101090009C0120953095AA27629FB12D739FC001B6
:1010A000369FB00D811D9A1F729FB00D811D9A1F32
:1010B0001124880F991F08952F923F924F925F92AB
:1010C0007F928F929F92AF92BF92CF92DF92EF92D8
:1010D000FF920F931F93CF93DF93782E00E613E1D7
:1010E000BAE1EB2EB3E1FB2ECBE88C2EC2E09C2EB6
:1010F000C9E6D2E08EE1582E91E0A92E90EEB92EED
:10110000BC1AAFEF5A1609F480C0E52DF52DFF0F7C
:10111000FF0B809145188515A1F080915112909197
:101120005212A0915312B0915412052C04C0B695DE
:10113000A795979587950A94D2F78170872909F426
:1011400064C0EE0FFF1FEB58FD4EC080D180609150
:101150003F18852D0CDD8115B1F1BFE15B1609F457
:101160006CC080912A0290912B029C0120953095B1
:101170002C153D0508F4B0C0C816D90608F48FC078
:10118000409128025091290260912C0270912D0209
:101190009A01261B370B1601412C512CC216D3067F
:1011A00008F080C09101A201281B390B41095109A7
:1011B000609130027091310280913202909133023D
:1011C0000E940C6E6C01D8018C91813071F180917C
:1011D0003618811551F180914018811126C0F70110
:1011E00080819181492F4695469550E02D2D269579
:1011F000269530E04217530709F472C0C816D90685
:1012000008F074C082E0F80180838C2F8B0D82304F
:1012100008F4DDC08C169D0609F46AC00F5F1F4FED
:10122000F2E0EF0EF11C59906CCFF701C082D18231
:10123000D801AC92A0924418E8CF8091020290911C
:1012400003029C01209530952C153D0508F4A3C0A0
:10125000C816D90608F45EC0409100025091010200
:1012600060910402709105029A01261B370B16014A
:10127000412C512CC216D30608F04FC09101A20197
:10128000281B390B4109510960910802709109022C
:1012900080910A0290910B020E940C6E93CFC12C98
:1012A000D12C91CF460F571F4C155D0508F057C044
:1012B000C101D201841B950BA109B1099C01AD01AB
:1012C000609134027091350280913602909137021C
:1012D0000E940C6E905876CFDD24DA94CD2C73CF1B
:1012E000AC92C082D182A09244188FCF83E08BCF82
:1012F000DF91CF911F910F91FF90EF90DF90CF90F2
:10130000BF90AF909F908F907F905F904F903F9055
:101310002F900895C12CD12C56CF460F571F4C1536
:101320005D05E8F18091060290910702009709F4AB
:101330004AC0280F391FC101D201821B930BA1099A
:10134000B1099C01AD016091100270911102809170
:101350001202909113020E940C6E905833CF80912C
:101360002E0290912F02009771F1280F391FC101B1
:10137000D201821B930BA109B1099C01AD016091BF
:1013800038027091390280913A0290913B020E949A
:101390000C6E905817CFEFEFDE2ECD2C14CFC1017D
:1013A000D201841B950BA109B1099C01AD0160918B
:1013B0000C0270910D0280910E0290910F020E941A
:1013C0000C6E9058FFCEC12C70E8D72EFCCE8091C9
:1013D0005C1390915D13C0905A13D0905B132091D1
:1013E0003F18211109C0C0921C13D0921D13809385
:1013F0002213909323130ECF809346139093471399
:1014000040905E1350905F13B201C60112DE8093CC
:101410001C1390931D13B201C6018095909509DEAF
:101420008093221390932313F5CE1F93CF93DF93D2
:10143000C82FC86F982F96959695969528E001C06D
:10144000220F9A95EAF72095122F1C23DFB7F89404
:10145000CB0151DA84B3836084BB8EB18F7D80640D
:101460008EB92FEF20BB8EB18F7780648EB9C1BB50
:1014700018B89DE092B9759AA09885E08A95F1F721
:10148000000084B3836084BB8EB18F7D80648EB98D
:1014900020BB8EB18F7780648EB911BB18B892B91A
:1014A000759AA0988AE08A95F1F700C084B38360AA
:1014B00084BB8EB18F7D80648EB920BB8EB18F7757
:1014C00080648EB9C1BB18B892B9759AA0988AE0A9
:1014D0008A95F1F700C0DFBFDF91CF911F9108958A
:1014E000AF92BF92CF92DF92EF92FF920F931F9332
:1014F000CF93DF9302EE1FE1D0E088E0E82EF12CDD
:10150000CC24CA949DE0B92EF801819191918F016C
:10151000FD2FF86FDF2E2D2F269526952695A701F6
:1015200001C0440F2A95EAF7C42FC095CF23AFB668
:10153000F894E1D984B3836084BB8EB18F7D8064DD
:101540008EB9C0BA8EB18F7780648EB9D1BA18B80F
:10155000B2B8759AA09855E05A95F1F7000084B397
:10156000836084BB8EB18F7D80648EB9C0BA8EB12A
:101570008F7780648EB9C1BB18B8B2B8759AA0983D
:101580008AE08A95F1F700C084B3836084BB8EB192
:101590008F7D80648EB9C0BA8EB18F7780648EB92A
:1015A000D1BA18B8B2B8759AA098EAE0EA95F1F7FE
:1015B00000C0AFBEDF5FD03209F0A6CF9FB7F8946E
:1015C0002091222084B3836084BB8EB18F7D8064A0
:1015D0008EB9C0BA8EB18F7780648EB921BB18B82E
:1015E0008BE082B9759AA0989FBFDF91CF911F9130
:1015F0000F91FF90EF90DF90CF90BF90AF90089544
:1016000090915B19892B6095862380935B1994B325
:10161000936094BB9EB19F7D90649EB99FEF90BBF9
:101620009EB19F7790649EB981BB18B88EE082B955
:10163000759AA09885E08A95F1F7000080915A1973
:101640008F5F80935A19089540E452E46FE070E090
:10165000E9E03FEF05C0411551056105710559F1FC
:1016600094B3936094BB9EB19F7D90649EB910BA71
:101670009EB19F7790649EB918B8E2B9759AA19807
:1016800092E09A95F1F700C02FB194B3936094BBA8
:101690009EB19F7D90689EB930BB41505109610950
:1016A000710921FB992790F99813D5CF452B462B2B
:1016B000472B09F008955DC940E452E46FE070E003
:1016C000E9E03FEF05C0411551056105710559F18C
:1016D00094B3936094BB9EB19F7D90649EB910BA01
:1016E0009EB19F7790649EB918B8E2B9759AA19897
:1016F00092E09A95F1F700C02FB194B3936094BB38
:101700009EB19F7D90689EB930BB415051096109DF
:10171000710922FB992790F99813D5CF452B462BB9
:10172000472B09F0089525C925E02A95F1F7000017
:1017300084B3836084BB8EB18F7D80648EB910BA10
:101740008EB18F7780648EB918B821E022B9759A6E
:10175000A19832E03A95F1F700C08FB194B393604D
:1017600094BB9EB19F7D90689EB99FEF90BB35E082
:101770003A95F1F7000034B3336034BB3EB13F7D9E
:1017800030643EB910BA3EB13F7730643EB918B804
:1017900022B9759AA19832E03A95F1F700C04FB19D
:1017A00034B3336034BB3EB13F7D30683EB990BB4B
:1017B00034B3336034BB3EB13F7D30643EB990BB3F
:1017C0003EB13F7730643EB911BA18B822B9759A64
:1017D000A09835E03A95F1F7000034B3336034BB9C
:1017E0003EB13F7D30643EB990BB3EB13F7730643F
:1017F0003EB911BA18B822B9759AA09835E03A9551
:10180000F1F7000034B3336034BB3EB13F7D306448
:101810003EB990BB3EB13F7730643EB921BB18B8AA
:1018200032E032B9759AA09825E02A95F1F70000C8
:1018300024B3236024BB2EB12F7D20642EB990BB2E
:101840009EB19F7790649EB911BA18B832B9759A53
:10185000A09835E03A95F1F70000942F8095909587
:1018600008955F926F927F928F929F92AF92BF92F4
:10187000CF92DF92EF92FF920F931F93CF93DF935C
:10188000682E5FB6F894282F2595259525952595E2
:1018900080E290E002C0959587952A95E2F7962D13
:1018A0009F70892B94B3936094BB9EB19F7D90648D
:1018B0009EB99FEF90BB9EB19F7790649EB981BB0C
:1018C00018B88AE082B9759AA09885E08A95F1F7F0
:1018D0000000E62CF62CFF0CFF08F701EF51FD4F3E
:1018E0002081022F10E080E190E0821B91092FEF10
:1018F0003FEF6901082E02C0D694C7940A94E2F71C
:1019000002C0CC0CDD1C8A95E2F7A12C30E8B32E86
:10191000CFEFDFEF912C49E0742E822E0BC0CA0D61
:10192000DB1DB694A7949394092C001C000809159C
:1019300010054CF1CE010E947B0482E08A95F1F7FC
:1019400000C084B3836084BB8EB18F7D80648EB908
:1019500010BA8EB18F7780648EB918B872B8759A44
:10196000A19882E08A95F1F700C09FB184B38360AB
:1019700084BB8EB18F7D80688EB980BA93FDCFCF46
:10198000CA19DB09CECF84B3836084BB8EB18F7D4F
:1019900080648EB99FEF90BB8EB18F7780648EB9D3
:1019A00091BB18B88AE082B9759AA09885E08A95AB
:1019B000F1F70000AE014C215D21652F70E0F701C9
:1019C000EF5AFD4E248130E0C901861B970B12F4BB
:1019D000CB01821B9091F712961509F449C0DF01E3
:1019E000AC59BF4F1C92853040F1648301E010E098
:1019F00020E0062C04C0000F111F221F331F0A9481
:101A0000D2F78091511290915212A0915312B0913D
:101A10005412802B912BA22BB32B809351129093B5
:101A20005212A0935312B0935412EC59FF4F81E01D
:101A300080836092F6126092F7125C3F08F46A01AC
:101A4000F701EE0FFF1FEB58FD4EC082D1825FBE43
:101A5000DF91CF911F910F91FF90EF90DF90CF908A
:101A6000BF90AF909F908F907F906F905F90089500
:101A7000853008F0BACFDF01AC59BF4F8C9181158A
:101A8000E1F280E16812B1CFD8CF84B3836084BB28
:101A90008EB18F7D80648EB99FEF90BB8EB18F7BAE
:101AA00080688EB983E081BB20E628B912B8759AA8
:101AB000A098EFE9FFE03197F1F700C0000084B390
:101AC000836084BB8EB18F7D80648EB990BB8EB1F4
:101AD0008F7B80688EB985E981BB28B912B8759A69
:101AE000A098FAE0FA95F1F700C084B3836084BB54
:101AF0008EB18F7D80648EB910BA8EB18F7B806875
:101B00008EB980EE88B912B8759AA19882E08A954C
:101B1000F1F700C08FB184B3836084BB8EB18F7D39
:101B200080688EB990BBEAE0EA95F1F700C00895AD
:101B30004FEF50EE3FB7F89494B3936094BB9EB1CF
:101B40009F7D90649EB910BA9EB19F7B90689EB9AC
:101B500058B912B8759AA19892E09A95F1F700C019
:101B60002FB194B3936094BB9EB19F7D90689EB952
:101B700040BB3FBF95E09A95F1F7000021FFDACF17
:101B80002FB7F89494B3936094BB9EB19F7D9064FB
:101B90009EB940BB9EB19F7B90689EB981BB80E699
:101BA00088B981E082B9759AA09885E08A95F1F7A5
:101BB00000002FBF08958091D31D90E06091D51D46
:101BC00070E00E941B6E2091D61D3091D71D280F0A
:101BD000391FF90120813FB7F8948091D31D90E01F
:101BE00001966091D51D70E00E941B6E8093D31DFD
:101BF0003FBF822F9DCFEF92FF920F931F93CF9302
:101C0000DF9300D000D0CDB7DEB749835A836B8312
:101C10007C8378018901BC0180E090E00E94306DF6
:101C2000905829813A814B815C810E94C86C0E9446
:101C3000406A9701A8010E94AD6D0E94B86DCB016A
:101C40000F900F900F900F90DF91CF911F910F91F8
:101C5000FF90EF9008950F931F93CF93DF93EC01C4
:101C6000CB012A893B892617370789F16A8B9B8B21
:101C700000E01FEF2FE737E440E050E06AEF75E443
:101C800080959095B8DFA0E0B0E09C01AD01220FF7
:101C9000331F441F551F220F331F441F551F220F90
:101CA000331F441F551F220F331F441F551F288702
:101CB00039874A875B87888D880F990BA1E0A81B1D
:101CC000B90B0E9472726C877D878E879F87DF9128
:101CD000CF911F910F9108950F938091371887FD31
:101CE00009C06F70982F990F990B6817190611F09A
:101CF0000F910895922F969520FB882787F9842BC2
:101D0000905200E020E041E060E070E0880F991F11
:101D1000880F991F0E94955A0F910895FF920F9373
:101D20001F93CF93DF9300D000D000D0CDB7DEB7A4
:101D30001092DA1D02E117E1F12C6F2D7F2D770F44
:101D4000770B872F972F0E94326D69837A838B835D
:101D50009C832DEB3EE140EC55E40E94AD6D20E00C
:101D600030E44CE955E40E94646C0E94B86D6D83C8
:101D70007E8321E33CE043E455E469817A818B81F1
:101D80009C810E94AD6D20E030E44CE156E40E945D
:101D9000646C0E94B86DF80180E02D813E81219332
:101DA000319322873387668B778B8F5F8630A9F7D5
:101DB000F3940C5D1F4F38E0F312BFCF0F900F90DC
:101DC0000F900F900F900F90DF91CF911F910F9177
:101DD000FF9008950F931F93CF93DF9300D0CDB75B
:101DE000DEB7898302E610E11A828A810E94D40557
:101DF000D8011D921D921D921D92BA81BF5FBA83B8
:101E0000045F1F4FB63089F7E981E11107C00F90D9
:101E10000F90DF91CF911F910F910895E2E5FFE0C0
:101E200080E1DF011D928A95E9F70F900F90DF9115
:101E3000CF911F910F910895AC012BED3EE1680FFA
:101E4000792F711DA3E09FEF06C04F5F5F4F3F5F8B
:101E50006417750709F15111F8CFF901F15028986D
:101E6000AEBD0DB407FEFDCF4EBD0DB407FEFDCFD8
:101E70001EBC0DB407FEFDCF9EBD0DB407FEFDCF09
:101E80008EB58193E217F307B9F7289A4F5F5F4F3A
:101E90003F5F64177507F9F61092DD1F8091DB1D17
:101EA0009091DC1DA091DD1DB091DE1D2FED3DE177
:101EB0002093DB1F3093DC1F853A9641A146B10584
:101EC00061F48091DF1D20EE3DE12093DB1F309314
:101ED000DC1F8093DD1F81E00895EBEDFDE180E0E4
:101EE00092E0DF019C011D9221503040E1F70895FE
:101EF000CF93CFB7F89461E09FDFCFBFCF91089524
:101F0000EBEDFDE180E092E0DF019C011D922150AC
:101F10003040E1F788E08093DD1F45EA56E161E655
:101F20004083518362831382848380EE9DE180939A
:101F3000DB1F9093DC1F0895CF93CFB7F894E0DFB9
:101F40006091DB1F7091DC1F9B012C5D3F4F42E1D4
:101F500057E1F901B497DA018D919D9181939193A5
:101F6000E217F307C9F79F012C5D3F4F4C5D5F4FB0
:101F700088E14233580769F78091341890913518F9
:101F8000FB01E05EFE4F8193919380913218909116
:101F9000331881939193E093DB1FF093DC1F8091C2
:101FA00036188083E091DB1FF091DC1FCF01019692
:101FB0008093DB1F9093DC1F809137188183E09121
:101FC000DB1FF091DC1FCF0101968093DB1F909304
:101FD000DC1F809139188183E091DB1FF091DC1FB9
:101FE000CF0101968093DB1F9093DC1F80913818FE
:101FF0008183E091DB1FF091DC1FCF01019680937C
:10200000DB1F9093DC1F80913A188183E091DB1FE6
:10201000F091DC1FCF0101968093DB1F9093DC1FB2
:102020001182E091DB1FF091DC1FCF0101968093BC
:10203000DB1F9093DC1F80913B188183E091DB1FB5
:10204000F091DC1F80913C1890913D188183928320
:10205000CF0103968093DB1F9093DC1F80913E1885
:102060008383E091DB1FF091DC1FCF010196809309
:10207000DB1F9093DC1F80913F1881838091DB1FD1
:102080009091DC1F01968093DB1F9093DC1F62E030
:102090008CEF90E00E94EE05CFBFCF910895CF92D4
:1020A000DF92EF92FF921F93CF93DF9300D000D087
:1020B000CDB7DEB789839A831FB7F89421DFE0900C
:1020C000DB1FF090DC1FAAE1B3E14CE453E1B70160
:1020D0002D913D91FB0121933193BF01F3E1AC348C
:1020E000BF07B1F7F701F296E093DB1FF093DC1F17
:1020F0008091151380930C13ACEFB2E18D91808326
:102100008091DB1F9091DC1F8B839C83FC013196B7
:10211000E093DB1FF093DC1F93E1A331B90771F764
:10212000DA012D913D91AD0121933193B3E1443515
:102130005B07B1F7EB81FC81118612869F01255F59
:102140003F4F2093DB1F3093DC1F20911313238715
:10215000E091DB1FF091DC1FCF0101968093DB1F24
:102160009093DC1F809114138183E091DB1FF09129
:10217000DC1F3196E093DB1FF093DC1F23E933E192
:1021800089E9E82E83E1F82E6901D6014D916D01B0
:1021900040834091DB1F5091DC1FFA013196E093A0
:1021A000DB1FF093DC1FB9E9CB16B3E1DB0669F75F
:1021B000D7018D919D917D0181939193B1EBEB16A8
:1021C000B3E1FB06A9F7CA0149968093DB1F909300
:1021D000DC1F80911613FA01818FE091DB1FF091D3
:1021E000DC1F8091581390915913818392838091C1
:1021F00056139091571383839483CF010596809350
:10220000DB1F9093DC1F809118138583E091DB1F07
:10221000F091DC1FCF0101968093DB1F9093DC1FB0
:10222000809117138183E091DB1FF091DC1FCF01B8
:1022300001968093DB1F9093DC1F8091191381839B
:10224000E091DB1FF091DC1F3196E093DB1FF093F0
:10225000DC1FA3E8B3E18D918083E091DB1FF09157
:10226000DC1F3196E093DB1FF093DC1F2A173B073E
:1022700091F761E089819A810E94EE051FBF0F905E
:102280000F900F900F90DF91CF911F91FF90EF90E3
:10229000DF90CF900895FF920F931F93CF93DF931A
:1022A00000D00F92CDB7DEB78983FFB6F894ECEF7C
:1022B000F2E185EBDF011D928A95E9F790E8109233
:1022C0001E1390931F1310922413909325132FEF36
:1022D0003FEF209328133093291310923E139093CD
:1022E0003F13109226139093271310922C13909360
:1022F0002D1310924213909343132093381330936D
:102300003913109248139093491310924E139093DF
:102310004F1340913F18413009F452C020F42093EC
:102320005A1330935B1385E080930F1381E0809301
:1023300011138093101382E08093121380913C1844
:1023400090913D18809354139093551346E050E0BC
:102350006FEF70E083E993E10E945D6F09E913E19B
:102360001A821B82EA81FB81BF01FF0F880B982F25
:102370000E94326D2BEA3AEA4AEA55E40E94AD6DBA
:102380000E94B86DD8016D937D938D01EA81FB8128
:102390003196EA83FB833C9729F7F981F11519F00F
:1023A00081E08093FC1288E08093DD1FFFBE0F90D8
:1023B0000F900F90DF91CF911F910F91FF90089593
:1023C00010925E1390935F13AECFFC0114821582BE
:1023D00016821782108211821282138281A58F5F6A
:1023E00081A7833009F43BC0853009F434C08230C2
:1023F00009F034C04689578944A355A324893589F7
:10240000AA27249FB12D359FC001529FB00D811D79
:102410009A1F349FB00D811D9A1F112480A391A390
:1024200020953095AA27249FB12D359FC001529F3A
:10243000B00D811D9A1F349FB00D811D9A1F11246C
:1024400082A393A384859585A685B7858083918390
:10245000A283B383089511A614A215A2089510A211
:1024600011A28689978982A393A30895EF92FF9280
:102470000F931F93CF93DF93CDB7DEB728970FB697
:10248000F894DEBF0FBECDBF7C01DC0114964D91E8
:102490005D916D917D91872F90E0A0E0B0E0892B58
:1024A0008A2B8B2B09F07BC0D70199968C918330B6
:1024B00009F482C008F040C0813009F481C0823044
:1024C00009F43DC020E030E0D70192968D919D91B6
:1024D0008C01AA27209FB12D319FF001129FB00DD2
:1024E000E11DFA1F309FB00DE11DFA1F1124D70125
:1024F00090968D919D918E0F9F1F12968D939D9317
:1025000096978D919D910D90BC91A02D840F951F54
:10251000A61FB71FF70184839583A683B7832896E8
:102520000FB6F894DEBF0FBECDBFDF91CF911F91E4
:102530000F91FF90EF900895843009F0C3CF598335
:102540006A837B831C82862FF70136A1313009F420
:102550003FC06F3F09F47BC021E0260F30E0220F1F
:10256000331FE82FF0E0EE0FFF1FEF5FFC4F0190ED
:10257000F081E02D2F5F3C4FD9012D913D912E1B15
:102580003F0B232F30E0B981B29FC001B39F900D64
:1025900011248E0F9F1F9C012095309595CFC70168
:1025A00014DFF7014481558166817781D7019996BF
:1025B0008C91833009F07ECFF7012489358984CF4F
:1025C000852F962FF70126A12130B1F09C017CCFF9
:1025D0006F3F09F442C021E0260F30E0220F331F85
:1025E000E82FF0E0EE0FFF1FEF5FFA4F0190F08150
:1025F000E02D2F5F3A4FC0CF8B0130E009831A8363
:102600001B821C826F3F31F1202F2F5F220F331F5F
:102610001981E12FF0E0EE0FFF1FE15EF54F008121
:1026200011810F831887215E354FF9012081318197
:10263000201B310B232F30E0829F8001839F100DE0
:10264000112498018F819885280F391F3DCF2EEFD7
:1026500031E087CF2EEF31E0DBCF2EEF31E0C0CF7E
:102660001092761D1092771D1092721D1092731D9C
:102670001092741D1092751D10927C1D40E061E057
:1026800088E00E94390410921820109219200E94AC
:10269000700A2FEF82E597E0215080409040E1F7EB
:1026A00000C00000809122208E7F809322202FB7CF
:1026B000F8943091222084B3836084BB8EB18F7DE7
:1026C00080648EB98FEF80BB9EB19F7790649EB976
:1026D00031BB18B89BE092B9759AA0982FBF209192
:1026E00022202D7F209322203FB7F8944091222072
:1026F00024B3236024BB2EB12F7D20642EB980BB70
:102700002EB12F7720642EB941BB18B892B9759AB3
:10271000A0983FBF20912220277F209322203FB7FF
:10272000F8944091222024B3236024BB2EB12F7D46
:1027300020642EB980BB2EB12F7720642EB941BB07
:1027400018B892B9759AA0983FBF209122202F7E89
:10275000209322203FB7F8944091222024B3236095
:1027600024BB2EB12F7D20642EB980BB2EB12F77D4
:1027700020642EB941BB18B892B9759AA0983FBF92
:10278000209122202F7D209322203FB7F894409162
:10279000222024B3236024BB2EB12F7D20642EB9C8
:1027A00080BB2EB12F7720642EB941BB18B892B9E7
:1027B000759AA0983FBF209122202F7B2093222042
:1027C0003FB7F8944091222024B3236024BB2EB15C
:1027D0002F7D20642EB980BB2EB12F7720642EB9B7
:1027E00041BB18B892B9759AA0983FBF209122209A
:1027F0002B7F209322203FB7F8944091222024B3CE
:10280000236024BB2EB12F7D20642EB980BB2EB156
:102810002F7720642EB941BB18B892B9759AA09849
:102820003FBF10921E2010921F2010921A2010926B
:102830001B20109220201092212010921220109222
:10284000132010921C2010921D2094B3936094BB0F
:102850009EB19F7D90649EB980BB9EB19F7790642E
:102860009EB990E391BB18B823E022B9759AA0985D
:1028700095E09A95F1F7000094B3936094BB9EB1F4
:102880009F7D90649EB980BB9EB19F7790649EB9F6
:1028900090E791BB18B822B9759AA09895E09A95DF
:1028A000F1F7000094B3936094BB9EB19F7D906458
:1028B0009EB980BB8EB18F7780648EB982EB81BB6D
:1028C00018B822B9759AA09825E02A95F1F700006A
:1028D0000895CF93DF930F92CDB7DEB789836981D7
:1028E00083ED9DE10E94CB0381110EC083ED9DE13C
:1028F0000E94FA03811599F35ED9698183ED9DE108
:102900000E94CB03811591F30F90DF91CF91089531
:102910000F93CF93DF9300D00F92CDB7DEB76A83CA
:102920007B832983672B39F40F900F900F90DF91F1
:10293000CF910F910895842FCCDF8A819B810197DD
:1029400099F38981C6DF8A819B81029769F3802F81
:102950000F900F900F90DF91CF910F91BACFBF9250
:10296000CF92DF92EF92FF920F931F93CF93DF935B
:10297000BFB6F89401977C01F594E794F594E79439
:1029800080EFA7DF80E0A5DF81E6A3DF86E1A1DF9E
:1029900081E09FDFF7FC2EC00CE51BE1EE0CFF1C75
:1029A000EE0CFF1CC701805A944E7C01F801C080D8
:1029B000C181D280D3818C2D8F778BDF8C2F8F7745
:1029C00088DF8D2D8F7785DF8D2F8F7782DFC7FB97
:1029D000CC27C1F9D7FADD24D2F8CD29C7FCC160D4
:1029E000D7FB882783F98C2B74DF0C5F1F4FE01611
:1029F000F106E1F687EF6DDFBFBEDF91CF911F914A
:102A00000F91FF90EF90DF90CF90BF900895CF93FC
:102A1000DF930F92CDB7DEB7811509F465C08091C1
:102A2000781D8F5F8093781D853148F081E090910B
:102A3000791D9111B1C08093791D1092781D8091FC
:102A40007C1D89838115E1F140917A1D4F5F409390
:102A50007A1DE1E8FDE101900020E9F7BF0162582D
:102A60007D4120917B1D322F330F330BC90101961D
:102A70000E941B6EBC012E58324ED9011F96EC915C
:102A8000E7FDC3C0F0E0EF5FF84F2081FB01EE5897
:102A9000F24EE785E7FDBBC0F0E0EF5FF84F8081C5
:102AA000403190F060937B1D10927A1D61110CC033
:102AB000B9811B164CF49B2F915090937C1D04C040
:102AC0002091761D8091771DE0917D1DE13009F404
:102AD00088C0E23009F471C080E0E11509F462C0F9
:102AE000F0E0EE58F24E84874FB7F89484B38360D9
:102AF00084BB8EB18F7D80648EB99FEF90BB8EB109
:102B00008F7780648EB911BA18B859E052B9759AA6
:102B1000A09800C000C080917D1D20E101C0220F5F
:102B20008A95EAF784B3836084BB8EB18F7D80641D
:102B30008EB990BB8EB18F7780648EB921BB18B8E7
:102B400088E082B9759AA09800C000C0E0917D1D10
:102B5000F0E0EE58F24E248584B3836084BB8EB1DE
:102B60008F7D80648EB990BB8EB18F7780648EB973
:102B700021BB18B852B9759AA0984FBF80917D1D9E
:102B800090E0019663E070E00E941B6E80937D1DD3
:102B90000F90DF91CF91089580E08093791D10927E
:102BA000781D4DCF8091721D9091791D911509F47A
:102BB00097CF9091741D892793CF2091721D3091EA
:102BC000731D30FD1DC08F772091741D3091751DD0
:102BD00030FF86CF9091791D911509F481CF8058EF
:102BE0007FCF8091721D9091731D91FD0BC0822F3C
:102BF0008F772091741D3091751D31FF71CFEACF11
:102C00008068E2CF822F8068F4CF2FEF3FCF8FEF25
:102C100047CF6091DA1D663090F06C3040F06B5D0C
:102C200086E60E94120481E0F2DE0C94700A655D73
:102C300082E60E94120481E0EADE0C94700A6F5C66
:102C400081E60E94120481E0E2DE0C94700ACF92C9
:102C5000DF92EF92FF92CF93DF93D82FC9E1D9DFB4
:102C6000C150E9F710925B1910925A196AE081E19C
:102C70000E94000B0E94940BE12CF12C670134C0E0
:102C800060E082E00E94000B61E088E00E94000B9F
:102C900080E00E94240B60E181E00E94000B81E053
:102CA0000E94240B60E080E10E94000B80E00E9403
:102CB0005C0B60E180E00E94000B60E080E10E941C
:102CC000000B81E00E945C0B6AE080E00E94000B38
:102CD000D1500E94940BC80ED91EE11CF11C99DF43
:102CE00080915919853058F4D111CACFB601C70166
:102CF000DF91CF91FF90EF90DF90CF9008958FEF0D
:102D0000F82EEF2C6701F2CF0F931F93CF93DF9331
:102D100000D000D0CDB7DEB789836A837B838FB7BD
:102D20008C83F89461E0898187D8EBEDFEE140E087
:102D300051E003C041505040F1F082918115D1F330
:102D40008A010F5F1F4FE981E0935C1B6BED7DE112
:102D50008DE59BE10E94436FEA81FB810083118333
:102D6000FC81FFBF0F900F900F900F90DF91CF91DC
:102D70001F910F91089501E010E0E5CFCF93DF930D
:102D800000D000D0CDB7DEB7843640F080E00F90A1
:102D90000F900F900F90DF91CF910895282F382F2B
:102DA000330F330B8B833C83C901A2D8811571F398
:102DB000BE016F5F7F4F8B819C81A6DF89819A81E5
:102DC000CEDD81E0E4CF842F4091371847FD08C065
:102DD0006F70542F550F550B6417150609F00895A1
:102DE000A9014395542F550F4FEF515061E070E00A
:102DF000211529F09A0140E050E00C943F5860E022
:102E00009A0140E050E00C943F58842F20913718ED
:102E100027FD08C06F70322F330F330B6217130674
:102E200009F0089520E030E0A901B9010C943F5861
:102E30001F93CF93DF93EC01162F8091B21086176A
:102E4000F1F080E00E94EA0E1093B21046E050E0EC
:102E50006FEF70E08AEA90E10E945D6FAAEAB0E14C
:102E600080E098819F3F39F121969D938F5F863056
:102E7000C1F71092AA10DF91CF911F910895288178
:102E800039818091AA109091AB1028173907E1F68B
:102E90002A813B818091AC109091AD1028173907A1
:102EA00099F62C813D818091AE109091AF1028173A
:102EB000390751F6E0CF8111DCCF86E0EAEAF0E194
:102EC000DF011D928A95E9F7DF91CF911F91089557
:102ED000CF93DF9300D000D000D0CDB7DEB786E02F
:102EE000E0E4F2E0DE01119601900D928A95E1F79F
:102EF00060E0CE0101969CDF0F900F900F900F9035
:102F00000F900F90DF91CF910895CF92DF92EF92C3
:102F1000FF920F931F93CF93DF93EC01E98DCC8049
:102F2000DD80EE80FF808F2D90E0A0E0B0E0109774
:102F30009040804009F070C0E43009F4A0C088F5EA
:102F4000E13009F492C0E33009F0DAC04D2D8E2D46
:102F50003FEFE31609F4D1C021E02E0D30E0220F3F
:102F6000331FE82FF0E0EE0FFF1FE45AF64E0190FA
:102F7000F081E02D245A364ED9012D913D912E1B22
:102F80003F0B232F30E0429FC001439F900D11243F
:102F9000E80FF91FEC8BFD8B6C857D858E859F85F9
:102FA00013C0E53009F0ACC04D2D5E2D6F2D669538
:102FB00057954795FA014C8B5D8B288D211198C050
:102FC0006C857D858E859F85AB01BC014C0D5D1D9B
:102FD0006E1D7F1D4C835D836E837F839F01305800
:102FE00048895989AA27249FB12D3503C001529FD2
:102FF000B00D811D9A1F34039A0BB00D811D9A1FCD
:1030000011248E8B9F8BDF91CF911F910F91FF9099
:10301000EF90DF90CF900895988DF1E0F91BF88F35
:103020006D017601F11155C0CC82DD82EE821F82E6
:103030008F2F880F990BA1E0A81BB90B2885398524
:103040004A855B850E9472726C877D878E879F8719
:10305000E11509F45CC0E23009F440C0E43079F0D5
:1030600008F09FCFE13009F071CF4D2D5E2DFA01B0
:10307000DC8AED8A6C857D858E859F85A5CF9B89B1
:1030800092959F70488159816A817B818A019B0159
:10309000000F111F221F331F872F8295869587707F
:1030A000B1E077FD8B278727472F469584278170CE
:1030B000A801B901482B915048F7488359832A83C6
:1030C0007B83FA014C8B5D8B6C857D858E859F851E
:1030D0007BCF7D01EA94DE2CCE2CA6CF0E94A46E7D
:1030E0006C8B7D8BE98DCC80DD80EE80FF8024CFE2
:1030F000E095F095EC8BFD8B63CF2EEF31E031CF77
:103100006C857D858E859F85EC89FD895DCF2F2F10
:10311000332721950CF43095F9012C8BFD8B54CF7E
:10312000CF93DF93EC01698F88819981AA81BB815C
:10313000892B8A2B8B2B49F00E94A46E688379839C
:103140008A839B83DF91CF910895609123207091B2
:10315000242080912520909126200E94FA6EECCFA9
:103160000F931F93CF93DF932AE1FC0111922A95CD
:10317000E9F710925C1910925D190EE519E1C1E0B2
:10318000D0E0BE018D2F880F880B982F0E94326DE2
:1031900020E030E04FE753E40E94C86C20E030E0CC
:1031A00040E85FE30E94646C2BED3FE049E450E4AB
:1031B0000E94AD6D0E94386A20E030E040E85FE395
:1031C0000E94646C20E030E040E05FE30E94AD6D5F
:1031D00020E03FEF4FE757E40E94AD6D0E94B86DCD
:1031E000F801619371938F012196C115F1E0DF071A
:1031F00041F6DF91CF911F910F9108952F923F9249
:103200004F925F926F927F928F929F92AF92BF92F6
:10321000CF92DF92EF92FF920F931F93CF93DF93A2
:10322000CDB7DEB72E970FB6F894DEBF0FBECDBF79
:103230008983862E4A831092591970E080E090E0CD
:103240000E94306D9B01AC0160E070E080E090E492
:103250000E94176C24EA30ED42E851E40E94AD6D03
:103260009B01AC0160E074E284EF99E40E94C86CB9
:103270006B837C838D839E832DEF280D3981A32E54
:10328000B12C4EE0942E00E010E84FEF5FEF4D8739
:103290005E87C501880F991FFC01EE51F04EEF8348
:1032A000F887822F90E041E050E01A0101C0220C23
:1032B0002A95EAF79195819591099C01990F440B04
:1032C00089873A874B874C870AC02D853E85200F1A
:1032D000311F2D873E87169507959A9419F14981DC
:1032E00060E08A810E94BF044D855E858417950742
:1032F00008F448C06FEF7FEF8FE79FE79B01AC01B9
:103300006B817C818D819E810E94AF6D87FDDDCFB9
:103310004D855E85401B510B4D875E871695079541
:103320009A94E9F6912CF401EE0FFF1FEE0FFF1FA8
:10333000EE0FFF1FE80DF91DEE0FFF1FEA0DFB1D3D
:10334000EE0FFF1FEE5EF84E8D859E858083918384
:1033500080E02E960FB6F894DEBF0FBECDBFDF9192
:10336000CF911F910F91FF90EF90DF90CF90BF9082
:10337000AF909F908F907F906F905F904F903F9015
:103380002F900895EF81F88540835183822D5FDC73
:103390006B017C01FFEFCF16DC04EC04FC04C9F0E8
:1033A00069857A858B859C850E94326D9B01AC0175
:1033B00060E070E080E090E40E94176C2B013C011B
:1033C000B601C7010E94306D9201A3010E94AD6D4C
:1033D00095CF8FEFBECFEF92FF920F931F93CF93B6
:1033E000DF93CDB7DEB728970FB6F894DEBF0FBED8
:1033F000CDBF89838093DA1D062F10E00E5F1F4F2B
:10340000F801EE0FFF1FE252F04E8FEF9FEF808327
:10341000918329812C3008F071C033E03B834CE06C
:103420006B818981EBDE811105C06B816F5F6B83DE
:103430006730A9F7E9808E2D90E0FC01EE0FFF1FA9
:10344000E258F84EA081B181BD01660F771FFC01E3
:10345000EE0FFF1FEE55F84E408151819B01241B5A
:10346000350BFC01EE0FFF1FE65AF84E2083318327
:10347000220F331F2A1B3B0BFC01EE0FFF1FEA5CE0
:10348000F84E20833183FC01EE0FFF1FEE5EF84EF5
:10349000220F331F461B570B240F351F2083318308
:1034A000DC01AA0FBB1FA25FB74EFC01EE0FFF1F8E
:1034B000E651F84E20813181220F331F880F991F6A
:1034C000FC01EA53F84E80819181281B390B2D9322
:1034D0003D93000F111FF801E252F04E108211824D
:1034E00028960FB6F894DEBF0FBECDBFDF91CF9107
:1034F0001F910F91FF90EF900C94700A24E02B83A2
:1035000044E26B8189817ADE811105C03B813F5F96
:103510003B833830A9F7E9808E2D90E0DC01AA0FBB
:10352000BB1FFD01EA53F84E208131812F8338877C
:10353000FD01EE55F84E40815181BA01660F771FAB
:1035400069837A83621B730BFD01E258F84E608336
:103550007183660F771FFB01E41BF50BED83FE8380
:103560009D01265A384EED80FE80F901E082F182FD
:103570002F813885E981FA812E1B3F0BF701EE0F71
:10358000FF1F2E0F3F1FFD01EA5CF84E20833183A1
:10359000AE5EB84E220F331F461B570B240F351F4C
:1035A0002D933D9396CF1F93CF93DF931FB7F8943E
:1035B0000E948E0E55D810921E2010921F20E6E019
:1035C000F0E28CE0DF011D928A95E9F74CE050E0D3
:1035D0006FEF70E08AEF9FE10E945D6F8091222083
:1035E0008160809322209FB7F8942091222084B399
:1035F000836084BB8EB18F7D80648EB98FEF80BB7A
:103600008EB18F7780648EB921BB18B88BE082B9F8
:10361000759AA0989FBF8FEF9FEF8093142090938F
:1036200015201092162010921720D0E062E16D0F45
:103630008D2FD1DEC1E0CD0FDC2FC630B9F78091E0
:1036400022208E7F809322203FB7F89490912220F1
:1036500084B3836084BB8EB18F7D80648EB92FEF7D
:1036600020BB8EB18F7780648EB991BB18B89BE078
:1036700092B9759AA0983FBF80912220886080936C
:1036800022203FB7F8944091222084B3836084BB0A
:103690008EB18F7D80648EB920BB8EB18F778064B0
:1036A0008EB941BB18B892B9759AA0983FBF1092D5
:1036B0001420109215208FEF9FEF80931620909387
:1036C00017206CE06C0F8C2F86DECF5FCC30C9F7F3
:1036D00080912220877F809322209FB7F8942091A9
:1036E000222084B3836084BB8EB18F7D80648EB9C9
:1036F0008FEF80BB8EB18F7780648EB921BB18B8F5
:103700008BE082B9759AA0989FBF109214201092F6
:10371000152010921620109217208FEF9FEF8093A4
:103720001E2090931F201092FA1F1092FB1F1092E0
:10373000FC1F1092FD1F1092FE1F1092FF1F10928F
:10374000002010920120109202201092032010926B
:1037500004201092052066E06C0F8C2F3CDECF5FBA
:10376000C231C9F710921E2010921F20109206201D
:1037700010920720109208201092092010920A201F
:1037800010920B2010920C2010920D2010920E20FF
:1037900010920F2010921020109211200E94700A97
:1037A0001092761D1092771D1092721D1092731D4B
:1037B0001092741D1092751D10927C1D0E949C0F1A
:1037C0001FBFDF91CF911F910895EF92FF920F934A
:1037D0001F93CF9389EDE82E82E0F82E06E610E1E4
:1037E000C0E0D7018D917D019091B110892321F026
:1037F000F8018581811114C0CF5F045F1F4FC6306F
:1038000081F7E2E5FFE080E1DF011D928A95E9F7AB
:103810001092B310CF911F910F91FF90EF900895E8
:103820004081518120E06C2F80E00E94FB59D8013B
:1038300015961D921C92E0CFEF92FF920F931F936B
:10384000CF931092B31089EDE82E82E0F82E06E6B1
:1038500010E1C0E0F70181917F019091B1108923BF
:1038600039F0F8018581811519F08681811559F0AB
:10387000CF5F045F1F4FC63069F7CF911F910F9143
:10388000FF90EF9008954081518120E06C2F0E94BD
:10389000FB59F8011582ECCFAF92BF92CF92DF9225
:1038A000EF92FF920F931F93CF93DF938C01C62E5D
:1038B000DFB6F89480E00E944B11C1103CC261E079
:1038C000C8010E941C0FA090DD1F811509F46CC275
:1038D00081E080931613109293138FEF80939413CB
:1038E00080939513809396138093971380939813E6
:1038F000A11409F44CC2C091DB1FD091DC1FEAE196
:10390000F3E19CE4E92E93E1F92EDE018D919D9186
:103910008193919323E1EC34F207C1F7FE01F29613
:10392000E093DB1FF093DC1F26E033E1ACEFB2E164
:103930008191E093DB1FF093DC1F8D932A173B07E7
:10394000B9F7BCACED96C093DB1FD093DC1F38E019
:10395000A316C8F4609142137091431380E090E085
:103960000E94306D2FED39E84DE15FE30E94AD6DAF
:103970000E94B86DB11409F403C26B587D4960937D
:10398000421370934313E7E0F3E18991C093DB1F87
:10399000D093DC1F819383E1E331F807B1F7A8E00E
:1039A000AA1608F0ABC0809144139091451360E0D3
:1039B00070E08130B2E09B07E8F09250BC0180E0FB
:1039C00090E00E94306D20E030E849E554E40E9428
:1039D000C86C20E030E040E85FE30E94646C0E9425
:1039E000416B20E030E64AE656E40E94AD6D0E944D
:1039F000B86D7E5F609344137093451380910B13F1
:103A0000813041F5609136137091371380E090E07A
:103A10000E94306D28EB3EE145E65FE30E94AD6D0C
:103A20000E94B86D609336137093371360913A1308
:103A300070913B1380E090E00E94306D28EB3EE1F6
:103A400045E65FE30E94AD6D0E94B86D60933A1346
:103A500070933B1360913C1370913D1380E090E0B4
:103A60000E94306D28EB3EE145E65FE30E94AD6DBC
:103A70000E94B86D60933C1370933D1380910913BD
:103A8000813041F560912E1370912F1380E090E00A
:103A90000E94306D28EB3EE145E65FE30E94AD6D8C
:103AA0000E94B86D60932E1370932F1360913213A0
:103AB0007091331380E090E00E94306D28EB3EE17E
:103AC00045E65FE30E94AD6D0E94B86D60933213CE
:103AD00070933313609134137091351380E090E04C
:103AE0000E94306D28EB3EE145E65FE30E94AD6D3C
:103AF0000E94B86D609334137093351380910C134A
:103B00008093151380913F180E94195DB090DD1FBE
:103B100022E0B21608F43BC1C091DB1FD091DC1F3C
:103B200026E533E1FE0181919191D7018D939D931B
:103B30007D012A173B07B9F7CE010A968093DB1F58
:103B40009093DC1F80913C1890913D188093541302
:103B5000909355138A859E01255F3F4F2093DB1F6D
:103B60003093DC1F809313138B85FE013C96E0930A
:103B7000DB1FF093DC1F8093141389E9E82E83E1A7
:103B8000F82EA3E9B3E18191E093DB1FF093DC1FF2
:103B90008D93EA16FB06B9F7B8E0BB1608F044C0EF
:103BA000809150139091511360E070E0813028E0D3
:103BB0009207E8F09850BC0180E090E00E94306DE0
:103BC00020E030E849E555E40E94C86C20E030E090
:103BD00040E85FE30E94646C0E94416B20E030E6A5
:103BE0004AE656E40E94AD6D0E94B86D7E5F609318
:103BF00050137093511360914E1370914F1380E0E6
:103C000090E00E94306D2FED39E84DE15FE30E94B6
:103C1000AD6D0E94B86D6B587D4960934E137093E3
:103C20004F1337E0B312B3C0FE01729621EB33E1BC
:103C3000819191910B3F110509F46FC0D7018D93CC
:103C40009D937D012A173B0799F7CE018A968093B1
:103C5000DB1F9093DC1FB7E0BB1609F498C08AA560
:103C600082300CF465C08BA59CA58093581390936B
:103C700059138DA59EA59E01215D3F4F2093DB1F0B
:103C80003093DC1F80935613909357138FA52F5FAB
:103C90003F4F2093DB1F3093DC1F843014F480935C
:103CA000181388A99E012F5C3F4F2093DB1F309390
:103CB000DC1F82300CF080E08093171389A9E29614
:103CC000C093DB1FD093DC1F883084F580931913D9
:103CD000A3E8B3E18991C093DB1FD093DC1F8D93E0
:103CE00023E1A339B207B1F7DFBE81E0DF91CF91C5
:103CF0001F910F91FF90EF90DF90CF90BF90AF900A
:103D00000895D7018D939D937D01B1EBEB16B3E13F
:103D1000FB0609F49ACF81919191C110F2CF82E014
:103D2000E80EF11C2E153F05D1F78FCF80E0CECFE6
:103D30008093161398CF8091DB1D9091DC1DA0918C
:103D4000DD1DB091DE1D2FED3DE12093DB1F309393
:103D5000DC1F853A9641A146B105E1F4A090DF1D34
:103D600080EE9DE18093DB1F9093DC1FA092DD1F0E
:103D7000E0E6F3E183E2DF011D928A95E9F7A8CD41
:103D800066587E4D6093421370934313FCCD81E0DF
:103D9000DFBEACCFEBEDFDE180E092E0DF019C0106
:103DA0001D9221503040E1F780E0DFBE9FCF0F939E
:103DB000262F8F70806BE0915918F0915A18042FBC
:103DC000482F63E070E089E598E109950F91089527
:103DD0001F920F920FB60F9211240BB60F922F93D2
:103DE0003F934F935F936F937F938F939F93AF9383
:103DF000BF93EF93FF93CF93DF930F92CDB7DEB7CF
:103E0000649B16C00F90DF91CF91FF91EF91BF910E
:103E1000AF919F918F917F916F915F914F913F9162
:103E20002F910F900BBE0F900FBE0F901F90189503
:103E30002FB72983F89484B3836084BB8EB18F7DC0
:103E400080648EB910BA8EB18F7B80688EB920EEF7
:103E500028B912B8759AA19832E03A95F1F700C0E6
:103E60009FB184B3836084BB8EB18F7D80688EB92F
:103E70008FEF80BB35E03A95F1F7000097FF02C065
:103E800090FD03C029812FBFBDCF34B3336034BB55
:103E90003EB13F7D30643EB910BA3EB13F7B3068E1
:103EA0003EB928B921E022B9759AA19822E02A9555
:103EB000F1F700C06FB124B3236024BB2EB12F7D76
:103EC00020682EB980BB35E03A95F1F7000094FDEB
:103ED00007C081E499E10E94CB0389818FBF92CF13
:103EE0000E94450DCFCF21E020937C1D009781F0EB
:103EF00010927B1DBC0182E89DE10E946F6FE1E89A
:103F0000FDE101900020E9F780E28293118208959B
:103F10008FEF80937B1D0895CF92DF92EF92FF92F7
:103F20000F931F93CF93DF93EC01498D50E0FA017B
:103F3000E052FD4F9491FA01E052FE4F249140521D
:103F40005F4FFA01449188A570E0642F522F492FEA
:103F5000082E04C076956795579547950A94D2F731
:103F6000440F551F661F771F440F551F661F771F8D
:103F7000440F551F661F771F440F551F661F771F7D
:103F8000488759876A877B872B8D30E0F901E0529B
:103F9000FD4F9491F901E052FE4FA491F901E052D6
:103FA000FF4FC490F12CEC2CDA2EC92E082E04C041
:103FB000F694E794D794C7940A94D2F7CC0CDD1CFE
:103FC000EE1CFF1CCC0CDD1CEE1CFF1CCC0CDD1C05
:103FD000EE1CFF1CCC0CDD1CEE1CFF1CCC86DD8611
:103FE000EE86FF860D8D10E0F801E052FD4F9491B2
:103FF000F801E052FE4FA49100521F4FF8010491C6
:1040000030E0202F1A2F092F04C0369527951795D9
:1040100007958A95D2F7000F111F221F331F000F3B
:10402000111F221F331F000F111F221F331F000FEC
:10403000111F221F331F088B198B2A8B3B8B89A5DD
:10404000833009F462C008F02FC0813009F465C0E4
:10405000823009F053C06E897F892C893D89AA2757
:10406000269FB12D379FC001729FB00D811D9A1FF1
:10407000369FB00D811D9A1F112488A399A3209506
:104080003095AA27269FB12D379FA001729FB00DB2
:10409000411D5A1F369FB00D411D5A1F1124942FE8
:1040A000852FA601B7011BC0843041F518A219A2C3
:1040B0006E8D7F8D8E899F89AC01AA27649FB12D5B
:1040C000759FF001569FB00DE11DFA1F749FB00D52
:1040D000E11DFA1F11249E2F8F2FA801B9019AA369
:1040E0008BA3488359836A837B83DF91CF911F9190
:1040F0000F91FF90EF90DF90CF90089518A219A232
:1041000080E090E0AC01BA01EACF18A219A29E8922
:104110008F8960E070E0AB01E2CF0E891F892E8DA0
:104120003F8DAA27209FB12D319FC001129FB00D56
:10413000811D9A1F309FB00D811D9A1F112488A3E5
:1041400099A320953095AA27209FB12D319FF0018A
:10415000129FB00DE11DFA1F309FB00DE11DFA1F37
:1041600011249E2F8F2FBBCF2F923F924F925F92A1
:104170006F927F928F929F92AF92BF92CF92DF9277
:10418000EF92FF920F931F93CF93DF93CDB7DEB7DC
:10419000E8970FB6F894DEBF0FBECDBFE09038139E
:1041A000F0903913E98AFA8A009130131091311393
:1041B0000B8B1C8B10910B131F8BE0900913E88E57
:1041C00000915813109159130D8B1E8BA0913C1325
:1041D000B0913D13E0913A13F0913B136091361387
:1041E000709137134091341350913513209132134D
:1041F0003091331380912E1390912F1311EB212EB8
:1042000013E1312E0DEA14E109831A83109115137D
:10421000111509F401C313E0198F10910A13111538
:1042200009F4F7C213E01A8F11E0A12EB12C7D0121
:10423000AB8FFC8E1D8E1E8E7F01EF8FF8A219A210
:104240001AA27B016BA3FCA21DA21EA27A014FA39E
:10425000F8A619A61AA679012BA7FCA61DA61EA6CC
:104260008C018FA718AB19AA1AAA8D899E899295DD
:1042700082958F7089279F7089277C01990F000B89
:104280008BABFCAA0DAB0EAB09811A810FAB18AF3B
:104290004EC26BA97CA98DA99EA90E94326D7B019B
:1042A0002C01C50166E070E00E941B6E682F6595C9
:1042B0006F5F762F770F770B80FF03C07195619545
:1042C0007109872F880F880B982F0E94326D9701F4
:1042D000A2010E94AD6D20E030E040EC5FE30E945F
:1042E000C86C0E94B36D872F880F880B982F0E948F
:1042F000326D20E030E040E857E30E94AD6D20E0F1
:1043000030E040E85FE30E94646C69837A838B83CA
:104310009C836B8D7C8D8D8D9E8D0E94306D9B015D
:10432000AC0169817A818B819C810E94AD6D0E9474
:10433000B36DAB01BC016130710514F04FEF5FEF5D
:104340003A0165014FEFC41AD40AC60166E070E075
:104350000E941B6E682F65956F5F762F770F770B26
:1043600080FF03C0719561957109872F880F880BB5
:10437000982F0E94326D9701A2010E94AD6D0E949C
:10438000B36D872F880F880B982F0E94326D20E025
:1043900030E040E857E30E94AD6D20E030E040E8B7
:1043A0005FE30E94646C69837A838B839C836F8D47
:1043B00078A189A19AA10E94306D9B01AC0169810D
:1043C0007A818B819C810E94AD6D0E94B36DAB019F
:1043D000BC016130710514F04FEF5FEF49835A83E0
:1043E000C501029666E070E00E941B6E682F65951D
:1043F0006F5F762F770F770B80FF03C07195619504
:104400007109872F880F880B982F0E94326D9701B2
:10441000A2010E94AD6D20E030E040E05FE30E9429
:10442000AD6D0E94B36D872F880F880B982F0E9467
:10443000326D20E030E040E857E30E94AD6D20E0AF
:1044400030E040E85FE30E94646C69877A878B877D
:104450009C876BA17CA18DA19EA10E94306D9B01C8
:10446000AC0169857A858B859C850E94AD6D0E9423
:10447000B36DAB01BC016130710514F04FEF5FEF1C
:1044800049875A87C501039666E070E00E941B6E5B
:10449000682F65956F5F762F770F770B80FF03C0CE
:1044A000719561957109872F880F880B982F0E944D
:1044B000326D9701A2010E94AD6D20E030E040EC2A
:1044C0005FE30E94C86C0E94B36D872F880F880B32
:1044D000982F0E94326D20E030E040E857E30E94C0
:1044E000AD6D20E030E040E85FE30E94646C6D87D2
:1044F0007E878F87988B6FA178A589A59AA50E9442
:10450000306D9B01AC016D857E858F8598890E94F9
:10451000AD6D0E94B36DAB01BC016130710514F04B
:104520004FEF5FEF4A01C501049666E070E00E941C
:104530001B6E682F65956F5F762F770F770B80FF67
:1045400003C0719561957109872F880F880B982F8B
:104550000E94326D9701A2010E94AD6D0E94B36D61
:10456000872F880F880B982F0E94326D20E030E053
:1045700040E857E30E94AD6D20E030E040E85FE3A3
:104580000E94646C6D877E878F87988B6BA57CA556
:104590008DA59EA50E94306D9B01AC016D857E8529
:1045A0008F8598890E94AD6D0E94B36D8B019C012F
:1045B0002130310514F00FEF1FEF6D8165956F5FAE
:1045C000762F770F770B2D8120FF03C071956195B2
:1045D0007109872F880F880B982F0E94326D9701E1
:1045E000A2010E94AD6D20E030E040E05FE30E9458
:1045F000AD6D0E94B36D872F880F880B982F0E9496
:10460000326D20E030E040E857E30E94AD6D20E0DD
:1046100030E040E85FE30E94646C6D837E838F83AB
:1046200098876FA578A989A99AA90E94306D9B01E6
:10463000AC016D817E818F8198850E94AD6D0E9455
:10464000B36DAB01BC016130710514F04FEF5FEF4A
:104650007A01EFA9F8AD808D918D20E0681679067A
:1046600019F0608E718E21E0EFA9F8AD828D938DE7
:1046700049815A814817590709F48AC0428F538FDC
:104680008489958969897A896817790709F49DC0B1
:1046900029893A89EFA9F8AD248B358B848D958DC6
:1046A00049855A854817590731F029853A85EFA978
:1046B000F8AD248F358F8FA998AD2EDCF101808D58
:1046C000918D20E08816990619F0808E918E21E058
:1046D000F101828D938D0817190709F447C0028FE5
:1046E000138F848995890B891C890817190709F488
:1046F00065C00B891C89F101048B158B848D958D08
:10470000E816F90619F0F101E48EF58EC10104DC1A
:104710001AE2210E311C0FA918AD065D1F4F0FAB19
:1047200018AF17E0C116D10409F45AC056011FEFA3
:104730001A0D1D83EF88EFA9F8ADE6A2E88CF10110
:10474000E6A2E98CEFA9F8ADE0A6CF01E5DBEA8CA3
:10475000F101E0A6C101E0DB0D891E89093E13408D
:1047600008F097CDE12CF12C27019BCD8489958908
:104770000B891C890817190709F0BBCF848D958D0B
:10478000E816F90609F0BFCF211509F4C1CFBECF55
:10479000EFA9F8AD8489958949895A89481759073D
:1047A00009F076CF848D958D69857A8568177907AC
:1047B00009F07BCF211509F481CF7DCF848D958DB4
:1047C000E816F90609F09FCFA1CFEFA9F8AD848DC7
:1047D000958D29853A852817390709F066CF6BCF63
:1047E000E8960FB6F894DEBF0FBECDBFDF91CF9134
:1047F0001F910F91FF90EF90DF90CF90BF90AF90FF
:104800009F908F907F906F905F904F903F902F90F0
:10481000089501E00A8F08CD01E0098FFECCFF92D8
:104820000F931F93CF93DF93EC01F62E1C821D8212
:104830001E821F820E891F896CA17DA1CB0170E0B1
:1048400060E09801AB010E9487722E8F3F8FF114B8
:1048500009F433C081E089A7AA27209FB12D319F99
:10486000C001129FB00D811D9A1F309FB00D811D98
:104870009A1F112488A399A320953095AA27209FD9
:10488000B12D319FC001129FB00D811D9A1F309F25
:10489000B00D811D9A1F11248AA39BA38885998539
:1048A000AA85BB8588839983AA83BB83FFA2DF91F6
:1048B000CF911F910F91FF90089584E089A718A2CE
:1048C00019A2AA27209FB12D319FC001129FB00DC0
:1048D000811D9A1F309FB00D811D9A1F11248AA33C
:1048E0009BA388899989AA89BB89DCCF0F9361151D
:1048F00021F0BA010F910C944206052F0695282F3E
:104900002F77409138184F704068E0915918F09116
:104910005A1863E070E089E598E109950F910895D0
:10492000EF92FF920F931F93CF93DF9300D000D0AD
:10493000CDB7DEB789836A8326E331E12B833C83DD
:10494000E12CF12C8701EB81FC81E158F109808198
:104950008330C9F539813C3F09F4B7C0B981BD3F07
:1049600009F44CC0B981BE3F09F46EC08091C711F3
:10497000BA81B11509F48DC091E0980F9093C711D9
:10498000EB81FC8140812091C611240F3327331F16
:1049900020383105C4F4398134528111B2C0858187
:1049A0008F5F858381E0840FAB81BC818C9328E885
:1049B000209FC001219F900D11248B549F4EFC011C
:1049C000E40FF11D3183C8010196B8E8EB0EF11C2C
:1049D000EB81FC81E857FF4FEB83FC8301E010E0A3
:1049E000029709F0B0CF0F900F900F900F90DF91CA
:1049F000CF911F910F91FF90EF900895EB81FC8173
:104A00008581811501F3815085838091C6118111C3
:104A10006EC088E8809F9001819F300D11242B5437
:104A20003F4E9FEF0BC0E150AB81BC81EC93E20F96
:104A3000F32FF11D8181918387FFC5CFAB81BC81AD
:104A4000EC91E111F0CFBFCFEB81FC81808190919F
:104A5000C611482F490F5527551F403851050CF0F6
:104A6000B2CF25812F5F25832091C711211163C00B
:104A700098E8909FF001919FF00D1124EB54FF4EA8
:104A8000E80FF11D9FE391838F5FAB81BC818C9315
:104A90009ACF811130C04091C61150E0EB81FC816A
:104AA0002081C7010196820F911D6EE370E08B5447
:104AB0009F4E0E945D6FAB81BC818C919091C6111D
:104AC000890F8C931092C6117ECFAB81BC811C9252
:104AD00015961C9215971092C61140E850E06FEFA2
:104AE00070E0CD01805891090E945D6F6CCF8150BC
:104AF0008093C61168CF81508093C711811163CF15
:104B0000CACF8FEF840F98E8909FB001919F700DEE
:104B100011246B547F4E04C097FF11C081507AF06E
:104B2000FB01E80FF11D87FDFA959181292F2F7365
:104B30003213F2CF48CF9F5F9093C61144CF3068B5
:104B400031CF2F923F924F925F926F927F928F92CE
:104B50009F92AF92BF92CF92DF92EF92FF920F930C
:104B60001F93CF93DF93CDB7DEB72E970FB6F89490
:104B7000DEBF0FBECDBFF82ED62EE42E852E2E879B
:104B8000E82FE695E695E695F0E0A82FA770B0E04F
:104B9000A752BD4F8C91EE5AF04F9081611509F4E8
:104BA00058C1892B8083EF2DF0E0EE0FFF1FEE59E7
:104BB000F04F40835183198240902320509024204D
:104BC00060902520709026204091B2104111A4C120
:104BD0003091B1105091171309ED12E062E670E1C7
:104BE0006C877D87FB01180120E0AFEFBFEFCD019F
:104BF0008E839F83A887B9876FEF14C080819181CE
:104C0000A281B38184159505A605B70520F47781A7
:104C1000F71609F403C27FEF271A370A2F5F3C9675
:104C2000263099F0D1017C917323A9F3708571111D
:104C3000E5CF5111B6C167FFEECF622F7FEF271A84
:104C4000370A2F5F3C96263069F767FF88C0F2E687
:104C50002F2EF0E13F2E89ED92E08A879B8720E09E
:104C60006FEFD62EC62E5601AE82BF826887698747
:104C70000EC05770E52FF0E0E752FD4F50817523CD
:104C8000C9F02F5F9CE0290E311C263081F1AA85E6
:104C9000BB855D91AA87BB87532399F3F1015681A8
:104CA000E52FE695E695E695F0E0EE5AF04F708137
:104CB0007111DFCFD101AD90BD90CD90DD90AA8272
:104CC000BB82CC82DD828E819F81A885B985A816A2
:104CD000B906CA06DB06A8F6AE82BF82C886D986A8
:104CE000622F2F5F9CE0290E311C263081F66F3F2A
:104CF000B1F55091B0107F2DEFEFDE2ECD2C560187
:104D0000AE82BF82D886D986D8012D918D0123230A
:104D1000E1F0513009F46FC1523009F463C151110F
:104D200014C0AC85BD85AD90BD90CD90DD90AA82BC
:104D3000BB82CC82DD828E819F81A885B985A81631
:104D4000B906CA06DB0608F45FC14F5F8C859D85F6
:104D50000C968C879D874630B9F667FD61C04AEA9C
:104D6000C42E40E1D42E9924939406E010E0D6019D
:104D70002C912F3F09F454C0BFEFCB1ADB0AA62EAB
:104D8000B62EBB0CBB08862F880F990B8A0D9B1D76
:104D9000880F991F880F991FFC01E659FF4E9082DA
:104DA000FC01E559FF4E9082FC01E459FF4E9082D0
:104DB000FC01EA59FF4EE0828182FC01E859FF4E76
:104DC000F082FC01E759FF4E2F0D2083FC01EE59C4
:104DD000FF4E408251826282738283599F4E2E859C
:104DE000FC01208329814E2D582D81E00E94FB5922
:104DF0002091B11003C0A62E660FBB08C501019615
:104E0000B8010E941B6E682F87529D4FDC018C9168
:104E1000822389F3B0EBCB16B0E1DB0609F0A7CF14
:104E20002E960FB6F894DEBF0FBECDBFDF91CF91A7
:104E30001F910F91FF90EF90DF90CF90BF90AF90B8
:104E40009F908F907F906F905F904F903F902F90AA
:104E500008958095892380836091B01080E090E070
:104E6000623009F48BC0382FE82FE695E695E69579
:104E7000F0E0EE5AF04F2081AC01211541F0E32F14
:104E8000E770F0E0E752FD4F7081272361F5CA011A
:104E900001964F37510521F708E610E107C0D3947A
:104EA000045F1F4FF6E0DF1609F4BACFD80112965F
:104EB0008C911297811599F38C918F11F0CF1496E4
:104EC0001C928091B310811521F08091B210811550
:104ED00031F3F801138220E04E2D582D6D2D80E026
:104EE0000E94FB59DCCFE8E6F0E12281211521F098
:104EF00020812817190659F23C9620E1E03BF20781
:104F0000A1F7FC01EE0FFF1FEE59F04FE08081800A
:104F1000F32E41E0498350CE6091B010611509F441
:104F20001ECF2F2D30E080E090E00AC0613009F400
:104F300077CF51E0598301968038910509F462C01A
:104F400082179307C1F3E82FE695E695E695F0E022
:104F5000EE5AF04F4081411571F3E82FE770F0E011
:104F6000E752FD4F5081452331F382179307F4F246
:104F7000623009F455CF41E04983DDCF4FE750E07F
:104F8000DA01A81BB90B3A2FEA2FE695E695E695CC
:104F9000F0E0EE5AF04F20812115F9F0AC01CD017F
:104FA0006ECFA080B180C280D380AA82BB82CC8227
:104FB000DD828E819F81A885B985A816B906CA06AB
:104FC000DB0608F028CEAA80BB80CC80DD80AE82D4
:104FD000BF82C886D986622F31CE0196803891056E
:104FE00079F65ACFEC85FD852781271708F0ADCEDD
:104FF000642F722FAACEAC85BD8517962C9172179F
:10500000B8F3A3CE60E0ABCEAA80BB80CC80DD80BD
:10501000AE82BF82C886D986642F97CE622F9FCE7C
:10502000CF93DF930F92CDB7DEB780914C128F3FB5
:1050300021F40F90DF91CF9108958F77898380912C
:105040004E129981890F20E040E050E060E08C5DD5
:1050500078DD80913E188111ECCF80914E129981BC
:10506000890F40E050E060E08C5D0F90DF91CF91C0
:105070003DCCCF93DF93D82FC62F809150128D1740
:1050800009F454C0D23041F1823019F4D33009F41C
:1050900046C0C6DF8FEF9FEF80934812909349126E
:1050A00080934A1290934B1280934C1240E850E048
:1050B0006FEF70E088EC91E10E945D6F0E94E51B4C
:1050C000D11123C0C11569F1C0E0D0935012C09333
:1050D0004F12DF91CF910895833009F1A1DF8FEF57
:1050E0009FEF809348129093491280934A129093B5
:1050F0004B1280934C1240E850E06FEF70E088EC68
:1051000091E10E945D6F0E94E51B80913A182FEF9C
:105110003FEF2093481230934912811599F1C11144
:10512000D4CF80914F12811579F206C0611120C051
:1051300080914F128115E1F028EC31E148E452E111
:10514000F9019FEF819187FF02C0DF019E9382E109
:10515000E834F807B9F7F90180818F3F49F42F5FF0
:105160003F4F4217530701F1F90180818F3FB9F397
:10517000D11509F4A9CFD0935012C0934F12DF91EB
:10518000CF9108958091B510823049F280913D1100
:10519000823029F28FEF9FE78093F8129093F912F3
:1051A00089E080931017BBCF3BDFE2CFCF9338DF8E
:1051B00080915012823009F467C0833009F44DC0E9
:1051C000813009F048C08091481290914912609155
:1051D0004A1270914B124FE750E09C012F5F3F4FF6
:1051E000C9018F77907837FF04C08A9580689FEF58
:1051F0000196FC01E853FE4E20812F3F71F39A0186
:10520000281B390B6217730741F380934812909360
:105210004912C081CF7780914D128C5D20E040E033
:1052200050E861E08C0F8DDC80913E18811509F407
:1052300048C08091481290914912FC01E853FE4EFB
:10524000208120934C1220914D1220934E12809376
:105250004A1290934B12CF910895809148129091E9
:1052600049129C012F5F3F4FC9018F77907837FF1C
:1052700004C08A9580689FEF0196FC01E853FE4EBA
:1052800020812F3F71F3C1CFE8ECF1E128E432E156
:10529000C0E081918F3F09F0CF5F2E173F07C9F71C
:1052A000C230C0F4809148129091491297FD46C0D7
:1052B000FC01E853FE4E20812F3F09F0A6CF60E0AD
:1052C00024C080914D128C5D60E070E88C0F0E94CC
:1052D0004206AFCF0E94A46E4C2F4150550B9A014D
:1052E000432F440F440B542F0E944C726F5F8091E8
:1052F00048129091491297FF02C080E090E0FC01B3
:10530000E853FE4E20812F3F99F49C012F5F3F4FC1
:10531000C9018F77907837FF04C08A9580689FEF26
:105320000196FC01E853FE4E20812F3F71F361503E
:10533000FC01E853FE4E6111E8CF67CF8091C811A0
:105340008F3F29F080E090E0E8ECF1E15ECF80E073
:1053500090E060E0DACFBF92CF92DF92EF92FF92BF
:105360000F931F93CF93DF938C017C0181E8E80EAC
:10537000F11CF70180818115C9F1E801CC57DF4F9D
:105380008881998197FD32C0800F911FFC01818136
:105390006801F7E8CF0ED11C10C088819981019671
:1053A000F701608170E00E941B6E88839983800FF3
:1053B000911FFC01818187FF19C08F7392EC980FB8
:1053C0009230A0F08C5DF601B080B80E20E040E095
:1053D00050E060E08B2DB5DB80913E188111DDCF70
:1053E00040E050E060E08B2D81DAD7CFDF91CF91A4
:1053F0001F910F91FF90EF90DF90CF90BF90089595
:1054000080913A18813039F46A3F61F06C3F09F4B9
:105410003FC0683F09F0089580910E178F5F809319
:105420000E1708958091B510823009F455C010927E
:105430003711109238118FEF9FEF809339119093AD
:105440003A1190913D11923079F18091501281156D
:1054500009F468C01092BF111092C0112FEF3FEFF6
:105460002093C1113093C211923029F080915012D3
:10547000811509F453C0C901209348129093491231
:105480009FE78093F8129093F91210920E170895E7
:105490008091B5108230E1F080913D11823009F0A9
:1054A000BACF8DE391E157CF8DE391E154DF809145
:1054B000B5101092BF111092C0112FEF3FEF209343
:1054C000C1113093C2118230B1F290913D11CCCF15
:1054D00085EB90E140DFE0CF85EB90E13CDF809110
:1054E000B51010923711109238112FEF3FEF209323
:1054F000391130933A1190913D118230B9F09230C8
:1055000099F280915012811569F01092BF1110929A
:10551000C0112093C1113093C211AACF89E08093AA
:105520001017A9CF89E08093101794CF923009F417
:10553000BBCF1092BF111092C0112093C1113093B4
:10554000C21199CFCF92DF92EF92FF920F931F93E8
:10555000CF93DF93CDB7DEB728970FB6F894DEBFB1
:105560000FBECDBF062FC82ED82EDD0CDD08282F8C
:1055700038E8230370011124F701EB54FF4E10812A
:10558000161759F1882799278C199D09887890E07A
:105590008F8318868B549F4E8C839D838091B5108A
:1055A000823009F46BC191E0998380913D11823082
:1055B00009F01982111509F4BFC0133009F40EC1A6
:1055C000123009F446C10230B9F0033011F41092E0
:1055D000C611F701EB54FF4E008328960FB6F894DE
:1055E000DEBF0FBECDBFDF91CF911F910F91FF9016
:1055F000EF90DF90CF90089590913A189A83F70139
:10560000EB54FF4E8081823009F427C1F701E95C39
:10561000FE4E108211828FEF9FEFF701E75CFE4E86
:10562000808391832091FA123091FB129091B510F2
:10563000923049F090913D11923029F090915012A2
:10564000911509F40EC187010B541F4E92E0F80129
:105650009083F981F11509F22F3F320709F4BDCF8C
:10566000C901969587952091F8123091F912281763
:10567000390708F0B2CFF801EF57FF4F808181154D
:1056800009F4ABCFF801F181F983FE33A1F08C81ED
:105690009D8161DE29812F3371F0F801EC57FF4FB6
:1056A000D801AE57BF4F8D919D91808391833396E2
:1056B0008091C511808328E82C9DC0012D9D900DFF
:1056C0001124FC01EB54FF4E6F018C01095C1E4E4E
:1056D0009C012A5C3E4E790113C0F80180819181C2
:1056E0000196F701608170E00E941B6EF8018083D3
:1056F00091838C0D9D1DFC01F181F983F7FF6DCF26
:1057000039813F733983832F8E53823030F33C5D70
:105710008091C511380F398320E040E050E861E006
:10572000832F0FDA80913E188111D7CF60E070E8A7
:1057300089810E944206D1CF2F8138852A543F4E5D
:105740002A833B833FB73E83F89461E0C6018853C8
:105750009F4F0E941C0F811509F470C0E091DB1F60
:10576000F091DC1FAA81BB819F0120583F4F81919E
:10577000E093DB1FF093DC1F8D932E173F07B9F7E3
:105780009E819FBFF701EA5CFE4E1082F701E55C47
:10579000FE4E10822F8138852A543F4E88E88C9D1A
:1057A000F0018D9DF00D1124DF01A55CBE4EAF010F
:1057B0004A5C5E4E0BC08C918F5F8C932F5F3F4F86
:1057C0001F5FFA011083103809F4FDCEF9018081C2
:1057D0008F3F09F084F709F4F6CEF0CF2F8138859A
:1057E0002A543F4E2A833B831FB7F8940E94800FB0
:1057F000E091DB1FF091DC1F2A813B8120583F4F55
:10580000AA81BB81CD0101968A839B838C91808381
:10581000E091DB1FF091DC1F3196E093DB1FF093EA
:10582000DC1F8A819B812817390751F761E0C60187
:1058300088539F4F0E94EE051FBFC5CE8E818FBF3C
:1058400040E850E06FEF70E08A819B810E945D6FBD
:1058500099CF8C819D817FDDB6CE8C819D817BDD52
:10586000D5CE89E080931017EA81E111ECCE8FEF5D
:105870009FE78093F8129093F912E5CEE1E0E98377
:1058800099CECF93DF9300D000D000D00F92CDB748
:10589000DEB78F830E941C1C46E050E06FEF70E083
:1058A000CE0101960E945D6F80E020E0E82FE69532
:1058B000E695E695F0E0EE5AF04F90819115D1F023
:1058C000E82FE770F0E0E752FD4F3081932391F02D
:1058D000FE013196E20FF11D27FDFA95808391E0DC
:1058E000920F121634F42981382F321B30839630F0
:1058F00024F4292F8F5F8038C9F661E0CE0101962C
:105900000E94181789818F3F19F09F81911109C05A
:1059100027960FB6F894DEBF0FBECDBFDF91CF91B3
:10592000089521E040E050E861E00BD9F1CFCF923B
:10593000DF92EF92FF920F931F93CF93DF9300D0EC
:10594000CDB7DEB780910F13880F880F89830DEDD7
:1059500015E11A824A8160E089810E94BF047C01BE
:105960004A8160E080E00E94BF04E81AF90AC7019A
:10597000F801E1929193119211928F01FA81FC301A
:1059800040F54F2F60E080E30E94BF046C014A8124
:1059900060E080E00E94BF04780124E4E20EF11C84
:1059A000C81AD90AB60180E090E00E94306D20E06C
:1059B00030E040E250E40E94AD6D0E94B86DCB0132
:1059C000F7016083918312821382FA81FF5FFA8369
:1059D000C1CF2A812F5F2A83223109F0BBCF0F90DC
:1059E0000F90DF91CF911F910F91FF90EF90DF907B
:1059F000CF900895CF92DF92EF92FF920F931F9373
:105A0000CF93DF9300D000D0CDB7DEB7009132182E
:105A100010913318009314021093150284E192E060
:105A20000E94560684DF80919512909196124091C3
:105A30001602509117029A012095309528173907C0
:105A400008F460C08417950708F459C060911802E3
:105A5000709119029801261B370B6C01E12CF12C77
:105A6000C982DA821B821C828217930728F5C41A26
:105A7000D50AE108F1089601A70160911C02709116
:105A80001D0280911E0290911F020E940C6E905880
:105A900000E021E041E060E070E00E94955A0F9044
:105AA0000F900F900F90DF91CF911F910F91FF906A
:105AB000EF90DF90CF900895060F171F0817190772
:105AC00020F180911A0290911B02009709F3280F90
:105AD000391F89819A81AB81BC81821B930BA109FB
